:100000000C9427030C944F030C944F030C94F30EA1
:100010000C94F30E0C94F30E0C944F030C94CE0E30
:100020000C944F030C944F030C944F030C944F0308
:100030000C944F030C944F030C944F030C944F03F8
:100040000C942C0E0C944F030C949C0E0C94760E76
:100050000C944F030C944F030C944F030C944F03D8
:100060000C944F030C944F0308000000BE922449E7
:10007000123EABAAAA2ABECDCCCC4C3E00000080DA
:10008000BEABAAAAAA3E00000000BF000000803F4D
:100090000000000000084178D3BB4387D1133D190D
:1000A0000E3CC3BD4282AD2B3E68EC8276BED98F3A
:1000B000E1A93E4C80EFFFBE01C4FF7F3F0000007E
:1000C000000007634236B79BD8A71A39685618AEA6
:1000D000BAAB558C1D3CB7CC5763BD6DEDFD753E7D
:1000E000F6177231BF000000803F6E616E00696ECE
:1000F000660000407A10F35A00A0724E18090010F2
:10010000A5D4E80000E87648170000E40B5402008C
:1001100000CA9A3B000000E1F505000080969800B7
:10012000000040420F000000A086010000001027E0
:1001300000000000E8030000000064000000000070
:100140000A00000000000100000000002C76D888A2
:10015000DC674F0823DFC1DFAE59E1B1B796E5E3B5
:10016000E453C63AE651997696E8E6C28426EB89CE
:100170008C9B62ED407C6FFCEFBC9C9F40F2BAA56B
:100180006FA5F490055A2AF75C936B6CF9676DC103
:100190001BFCE0E40D47FEF520E6B500D0ED902E07
:1001A0000300943577050080841E080000204E0A65
:1001B000000000C80C333333330F986E12831141A3
:1001C000EF8D2114893BE65516CFFEE6DB18D1846E
:1001D0004B381BF77C1D901DA4BBE4242032847295
:1001E0005E228100C9F124ECA1E53D274E414E4934
:1001F0004E495459494E46CDCCCC3D0AD7233C17E5
:10020000B7D13877CC2B329595E6241FB14F0A0031
:100210000020410000C84200401C4620BCBE4CCA21
:100220001B0E5AAEC59D74494E464F3A20444F4E60
:10023000452E2052656164792E00494E464F3A2082
:10024000476976696E6720736F6D652074696D65A7
:1002500020666F722073656E736F727320746F20E7
:1002600073746162696C697A652E00494E464F3A33
:10027000204C5047206C65616B20756E6465722060
:10028000636F6E74726F6C2E00202020202020532C
:100290006F756E64696E672074686520616C617249
:1002A0006D2E002020202020204163746976617427
:1002B000696E67206669726520737072696E6B6C17
:1002C00065722073797374656D2E00494E464F3AFE
:1002D000204C5047206C65616B20646574656374C5
:1002E00065642E00494E464F3A20556E7573756110
:1002F0006C206163746976697479206465746563E0
:100300007465643A20646F6F722F77696E646F77DB
:100310002F636162696E65742F637570626F6172BD
:100320006420776173206F70656E65642C20736F35
:10033000756E64696E672074686520616C617261B6
:100340006D2E00202020202020202020556E657852
:10035000706563746564206163746976697479207B
:100360006E656172207468652067617261676520DF
:10037000646F6F722E002020202020202020205427
:10038000616E6B20776174657220686173206368A9
:10039000616E6765642E005741524E494E473A20C0
:1003A000556E757375616C206163746976697479D3
:1003B0002064657465637465642E00494E464F3A47
:1003C000204D6F74696F6E20646574656374656435
:1003D0002E20496E74727564657220616C6572744A
:1003E00021212120536F756E64696E6720746865E2
:1003F00020616C61726D2E00202020202020496E2B
:10040000636F6D696E6720636172206465746563F4
:100410007465642C206F70656E696E672074686502
:100420002067617465732E002020202020205461F5
:100430006E6B2061626F75742066756C6C2C207415
:1004400075726E696E67206F6666207468652077C6
:10045000617465722070756D702E00202020202040
:10046000204F7574676F696E6720636172206465E1
:100470007465637465642C20636C6F73696E6720A8
:100480007468652067617465732E00202020202029
:10049000205475726E696E67204F4E207468652017
:1004A00077617465722070756D702E00494E464FED
:1004B0003A205368757474696E6720646F776E2094
:1004C000746865206170706C69616E6365732E007D
:1004D00020202020202041637469766174696E6752
:1004E0002041432E00202020202020446561637499
:1004F00069766174696E672041432E0020202020B8
:1005000020205475726E696E67204F4E20746865A6
:100510002066616E2E002020202020205475726EEF
:10052000696E67204F4646207468652066616E2EAE
:1005300000202020202020537769746368696E674B
:10054000204F464620746865206C696768742E00E9
:10055000202020202020436C6F73696E672077690C
:100560006E646F7720626C696E642074696C6C20B5
:1005700068616C662E00202020202020537769744B
:100580006368696E67204F464620746865206C6911
:100590006768742E002020202020204F70656E692F
:1005A0006E672077696E646F7720626C696E642075
:1005B00074696C6C2068616C662E002020202020FD
:1005C00020537769746368696E67204F4E207468A2
:1005D00065206C696768742E00494E464F3A204D7D
:1005E0006F74696F6E2064657465637465642E0052
:1005F00000000008000201000003040700000000E2
:100600000000000000000000240027002A00000075
:10061000000023002600290000000000250028001B
:100620002B00040404040404040402020202020273
:1006300003030303030301020408102040800102A6
:10064000040810200102040810206B0F931D1124D0
:100650001FBECFEFD8E0DEBFCDBF26E0A0EBB4E0F9
:1006600001C01D92A835B207E1F714E0A0E0B1E0A7
:10067000E2EFF5E502C005900D92A03BB107D9F776
:1006800013E0C6E2D3E004C02197FE010E94B62821
:10069000C532D107C9F70E9479100C94EC2A0C944A
:1006A0000000833081F028F4813099F08230A9F085
:1006B00008958730A9F08830C9F08430B1F4809172
:1006C00080008F7D03C0809180008F7780938000B1
:1006D000089584B58F7784BD089584B58F7DFBCF51
:1006E0008091B0008F778093B00008958091B00022
:1006F0008F7DF9CFCF93DF93282F30E0F901E051C0
:10070000FA4F8491F901EA5CF94FD491F901EE5D59
:10071000F94FC491CC23A1F081110E945103EC2F19
:10072000F0E0EE0FFF1FE25FF94FA591B491EC915D
:10073000ED2381E090E009F480E0DF91CF9108950E
:1007400080E090E0FACF1F93CF93DF93282F30E023
:10075000F901E051FA4F8491F901EA5CF94FD49123
:10076000F901EE5DF94FC491CC23A9F0162F811148
:100770000E945103EC2FF0E0EE0FFF1FE85EF94FEF
:10078000A591B4918FB7F894EC91111108C0D09550
:10079000DE23DC938FBFDF91CF911F910895DE2B75
:1007A000F8CFCF93DF9390E0FC01EA5CF94F2491FE
:1007B0008E5D994FFC0184918823D1F090E0880FE1
:1007C000991FFC01EC5FF94FA591B491FC01E85E23
:1007D000F94FC591D49161110EC09FB7F8948C91D7
:1007E000E22FE0958E238C932881E223E8839FBF3C
:1007F000DF91CF9108958FB7F894EC91E22BEC93B1
:100800008FBFF6CF8E50806480937C0080917A00F9
:10081000806480937A0080917A0086FDFCCF80917D
:1008200078009091790008953FB7F894809154052D
:1008300090915505A0915605B091570526B5A89BF6
:1008400005C02F3F19F00196A11DB11D3FBFBA2F62
:10085000A92F982F8827BC01CD01620F711D811D22
:10086000911D42E0660F771F881F991F4A95D1F7A7
:1008700008954F925F926F927F929F92AF92BF9234
:10088000CF92DF92EF92FF920F931F93CF93DF935C
:1008900000D01F92CDB7DEB7D82E80914806909138
:1008A0004906A0914A06B0914B06892B8A2B8B2BC7
:1008B000D9F00E94140400916405109165052091FF
:1008C000660530916705601B710B820B930B0091DD
:1008D00048061091490620914A0630914B06601750
:1008E000710782079307C8F20E941404609364059D
:1008F000709365058093660590936705E0915006B7
:10090000F0915106309759F040914C0650914D06A8
:1009100060914E0670914F068D2D0995D82EE0906E
:100920006205F09063054D2C512C712C612CE11463
:10093000F10409F459C0D7011C96CC901C97809102
:100940004606909147068436910510F41C961C9239
:10095000D701ED91FC91A280B38019821A821B828B
:10096000DD2079F1F701369610E000E02191222395
:1009700019F19280992001F130E050E040E02F5FC2
:100980003F4F4F4F5F4FC301B2010E9455289B015B
:10099000AC01892D90E0B0E0A0E0BC01CD016F5F1B
:1009A0007F4F8F4F9F4F0E945528A1E0B0E0AC0FC2
:1009B000BD1FA00FB11F8C930F5F1F4F0330110598
:1009C000A9F609811A812B81F70145855685628137
:1009D0007381C701F5010995D7011C96CC921C972C
:1009E0001496ED90FC90A3CF8091600590916105E5
:1009F0009C012F5F3F4F309361052093600549971D
:100A00000CF44AC08FB7F8942091580530915905DD
:100A100040915A0550915B058FBF80915C05909184
:100A20005D05A0915E05B0915F05281B390B4A0B4F
:100A30005B0B21F421E030E040E050E0E091600504
:100A4000F091610588EE93E0E89FB001E99F700D99
:100A5000F89F700D1124072E000C880B990B0E9433
:100A6000792830934706209346061092610510922C
:100A700060052FB7F8948091580590915905A09181
:100A80005A05B0915B052FBF80935C0590935D057F
:100A9000A0935E05B0935F050F900F900F90DF91CC
:100AA000CF911F910F91FF90EF90DF90CF90BF906B
:100AB000AF909F907F906F905F904F9008958F922E
:100AC0009F92AF92BF92CF92DF92EF92FF926B0113
:100AD0007C010E9414044B015C01C114D104E104A7
:100AE000F104B9F00E941404681979098A099B0974
:100AF000683E73408105910580F321E0C21AD10858
:100B0000E108F10888EE880E83E0981EA11CB11C54
:100B1000E4CFFF90EF90DF90CF90BF90AF909F9089
:100B20008F9008953F924F925F926F927F928F9233
:100B30009F92AF92BF92CF92DF92EF92FF920F936C
:100B40001F93CF93DF936A017B01D1E0C3E0312C87
:100B5000811104C0DFEFC0E083E0382E2DE53CEBCF
:100B60004EEF53E4C701B6010E94DA240E94942696
:100B70004B015C01C12CD12C76016D2EDD0F770865
:100B80004C2ECC0F55088C149D04AE04BF0429F1E3
:100B9000C32D032C000CDD0B8E0105591E4F060DD5
:100BA000171DF801E619F709908188B1837C892B1C
:100BB00088B963E070E080E090E04C165D0629F0B3
:100BC0000E945F05C60DD71DEACF0E945F058FEF1B
:100BD000C81AD80AE80AF80AD6CFDF91CF911F9138
:100BE0000F91FF90EF90DF90CF90BF90AF909F90CC
:100BF0008F907F906F905F904F903F90089580E925
:100C000091E00895AF92BF92CF92DF92EF92FF9260
:100C10000F931F93CF93DF936C017B018B01040F24
:100C2000151FEB015E01AE18BF08C017D10759F0C0
:100C30006991D601ED91FC910190F081E02DC60102
:100C40000995892B79F7C501DF91CF911F910F91FC
:100C5000FF90EF90DF90CF90BF90AF900895FC0190
:100C6000538D448D252F30E0842F90E0821B930B11
:100C7000541710F0CF96089501970895FC01918DB7
:100C8000828D981761F0A28DAE0FBF2FB11D5D96BA
:100C90008C91928D9F5F9F73928F90E008958FEF5C
:100CA0009FEF0895FC01918D828D981731F0828D10
:100CB000E80FF11D858D90E008958FEF9FEF089567
:100CC000FC01918D228D892F90E0805C9F4F821BCB
:100CD00091098F739927089588E695E00E94600630
:100CE00021E0892B09F420E0822F089580E090E034
:100CF000892B29F00E946C0681110C940000089544
:100D0000FC01A48DA80FB92FB11DA35ABF4F2C9180
:100D1000848D90E001968F739927848FA689B78977
:100D20002C93A089B1898C91837080648C93938D6E
:100D3000848D981306C00288F389E02D80818F7D11
:100D400080830895EF92FF920F931F93CF93DF93C9
:100D5000EC0181E0888F9B8D8C8D98131AC0E889F7
:100D6000F989808185FF15C09FB7F894EE89FF89C6
:100D70006083E889F98980818370806480839FBF64
:100D800081E090E0DF91CF911F910F91FF90EF9064
:100D90000895F62E0B8D10E00F5F1F4F0F73112774
:100DA000E02E8C8D8E110CC00FB607FCFACFE889AF
:100DB000F989808185FFF5CFCE010E948006F1CFB1
:100DC000EB8DEC0FFD2FF11DE35AFF4FF0829FB723
:100DD000F8940B8FEA89FB8980818062CFCFCF9313
:100DE000DF93EC01888D8823B9F0AA89BB89E88953
:100DF000F9898C9185FD03C0808186FD0DC00FB6F9
:100E000007FCF7CF8C9185FFF2CF808185FFEDCF76
:100E1000CE010E948006E9CFDF91CF910895209105
:100E20001305309114052817390771F490911105B5
:100E300080911205981741F0E0911105F0E0EA5415
:100E4000FB4F808190E008958FEF9FEF0895089504
:100E5000EF92FF920F931F93CF93DF93DC015C9689
:100E6000ED90FC905D97E114F10479F481E090E05D
:100E700013969C938E93129790E080E0DF91CF9130
:100E80001F910F91FF90EF9008955196ED91FC9175
:100E9000529750968C915097982F90950FB75E96D9
:100EA0002C915E97122F127021FD6095F89420818D
:100EB000112319F1282B2083E7012197F1F728E06E
:100EC000462F50E0308160FF1AC0382B3083E70195
:100ED0002197F1F7BA0175956795215089F711238C
:100EE00081F08081892380830FBF5C968D919C91D6
:100EF0000197F1F781E090E0C1CF2923DCCF3923BE
:100F0000E5CF9081892BEFCF209113053091140507
:100F10002817390771F4809112052091110590E08E
:100F2000805C9F4F821B910960E470E00E946528FD
:100F3000089590E080E00895209113053091140504
:100F400028173907B9F49091110580911205981767
:100F500089F0E0911105F0E0EA54FB4F8081209187
:100F6000110530E02F5F3F4F2F733327209311057A
:100F700090E008958FEF9FEF08952FB7F894809138
:100F8000580590915905A0915A05B0915B052FBF66
:100F900080932E0690932F06A0933006B0933106CF
:100FA00086E296E00E949C0797FF26C02FB7F89430
:100FB0008091580590915905A0915A05B0915B0513
:100FC0002FBF40912E0650912F06609130067091F0
:100FD0003106841B950BA60BB70B40912A06509146
:100FE0002B0660912C0670912D0684179507A60795
:100FF000B707B0F28FEF9FEF089590E080E008957B
:101000000F931F93CF93DF932091B5042F5F322F5F
:1010100037703093B50420FF2BC020E831FD2064E9
:10102000347009F02062205FFC01EC01239600E09F
:1010300011E06485662329F070E0C8010E946528EC
:101040006F5F6187322F369F030E30E0311D112410
:10105000311110C01682662311F0615061873196FC
:10106000EC17FD0731F7DF91CF911F910F91089594
:1010700020E0D4CF31503683EECF4F925F927F92F3
:101080008F929F92AF92BF92CF92DF92EF92FF9298
:101090000F931F93CF93DF932C01EB010E94140455
:1010A000F20127853089621B730B6A307105B0F33A
:1010B000F8948A819B81181619060CF0CDC1E8813D
:1010C000F98165B1862E689482F835B13B7F35B9D8
:1010D000DA848F812D2D281B822F2F834F85042E9C
:1010E000000C550BAA81BB817D85FC84EE847F5F5B
:1010F000F394E3949E819884B984AB841181C12CCC
:101100006C2D0C2D2C2D2181112788942111280F55
:1011100008F42FEF8195889470FD120F179588942D
:1011200071FD120F1795889472FD120F1795889410
:1011300073FD120F1795889474FD120F17958894FC
:1011400075FD120F1795889476FD120F17958894E8
:1011500077FD120F17958894622F7111612F8D0DF5
:10116000162F002C85B800C017FF35B920816627DF
:10117000889400C000C0002C35B92111290F00C08F
:10118000002C85B800C016FF35B908F42FEF9195F3
:10119000889400C000C0002C35B9F0FC620F00C07C
:1011A000002C85B800C015FF35B967958894F1FC0F
:1011B000620F00C000C0002C35B96795889400C04C
:1011C000002C85B800C014FF35B9F2FC620F67959A
:1011D000889400C000C0002C35B9F3FC620F00C039
:1011E000002C85B800C013FF35B967958894F4FCCE
:1011F000620F00C000C0002C35B96795889400C00C
:10120000002C85B800C012FF35B9F5FC620F679558
:10121000889400C000C0002C35B9F6FC620F00C0F5
:10122000002C85B800C011FF35B967958894F7FC8C
:10123000620F00C000C0002C35B96795889400C0CB
:10124000002C85B800C010FF35B9122FF110162FF1
:101250009B0D00C000C0002C35B900C000C0002CA0
:1012600085B800C017FF35B922816627889400C071
:1012700000C0002C35B92111290D00C0002C85B803
:1012800000C016FF35B908F42FEFE40FF51F00C0BA
:1012900000C0002C35B9E0FC620F00C0002C85B8FE
:1012A00000C015FF35B967958894E1FC620F00C056
:1012B00000C0002C35B96795889400C0002C85B813
:1012C00000C014FF35B9E2FC620F6795889400C036
:1012D00000C0002C35B9E3FC620F00C0002C85B8BB
:1012E00000C013FF35B967958894E4FC620F00C015
:1012F00000C0002C35B96795889400C0002C85B8D3
:1013000000C012FF35B9E5FC620F6795889400C0F4
:1013100000C0002C35B9E6FC620F00C0002C85B877
:1013200000C011FF35B967958894E7FC620F00C0D3
:1013300000C0002C35B96795889400C0002C85B892
:1013400000C010FF35B9122FE110162F919400C084
:1013500000C0002C35B99A0C00C000C085B800C090
:1013600017FF35B921816627889400C000C0002C82
:1013700035B92111280F00C0002C85B800C016FF18
:1013800035B908F42FEF8195889400C000C0002C77
:1013900035B970FD620F00C0002C85B800C015FF84
:1013A00035B96795889471FD620F00C000C0002CAC
:1013B00035B96795889400C0002C85B800C014FF2B
:1013C00035B972FD620F6795889400C000C0002C8B
:1013D00035B973FD620F00C0002C85B800C013FF43
:1013E00035B96795889474FD620F00C000C0002C69
:1013F00035B96795889400C0002C85B800C012FFED
:1014000035B975FD620F6795889400C000C0002C47
:1014100035B976FD620F00C0002C85B800C011FF01
:1014200035B96795889477FD620F00C000C0002C25
:1014300035B96795889400C0002C85B800C010FFAE
:1014400035B9122F7111162F8D0D00C000C0002C60
:1014500035B9119709F086CE4A815B8120EE31E0E3
:10146000DA010E949B28DC01CB01F4E0B695A79538
:1014700097958795FA95D1F730E020E0B901EAE930
:101480004E9F040E611D5E9F600D711D1124650F3E
:10149000711D860F971FA11DB11D893E43E0940762
:1014A000A105B10508F434C0885E9340A109B109D3
:1014B00042E0B695A795979587954A95D1F747E06D
:1014C000849F080E211D949F200D311D1124290F8A
:1014D000311D6091B40470E0860F971F820F931F37
:1014E000409158055091590560915A0570915B05DE
:1014F000292F3327420F531F611D711D409358053B
:101500005093590560935A0570935B058093B4041A
:1015100078940E941404F201708B6787DF91CF9159
:101520001F910F91FF90EF90DF90CF90BF90AF9001
:101530009F908F907F905F904F90089581E090E012
:101540000895229A08956F927F928F92CF92DF92A0
:10155000EF92FF920F931F93CF93DF93CDB7DEB738
:1015600062970FB6F894DEBF0FBECDBF6C017A0153
:101570003801822EDC011C962C91CA0157FF04C051
:1015800088279927841B950B7A8369839C838B8397
:101590009E838D836D867E868F86213049F5CE01B0
:1015A00001960E94000883E0888B1A8A198AF7FE48
:1015B00002C08DEF888BD601ED91FC910684F785F2
:1015C000E02DBE016F5F7F4FC601099562960FB691
:1015D000F894DEBF0FBECDBFDF91CF911F910F9169
:1015E000FF90EF90DF90CF908F907F906F90089555
:1015F0001C861B861A86198618861F82D4CFEF9206
:10160000FF920F931F93CF93DF93CDB7DEB762970F
:101610000FB6F894DEBF0FBECDBF7C01DC011C9677
:101620008C917A8369835C834B835E834D830D87C2
:101630001E872F878130F9F4CE0101960E940008A1
:10164000188A1A8A198AD701ED91FC910684F785C8
:10165000E02DBE016F5F7F4FC701099562960FB6FF
:10166000F894DEBF0FBECDBFDF91CF911F910F91D8
:10167000FF90EF9008951C861B861A86198618869F
:101680001F82DECF61E08DE00E94A30364E670E07C
:1016900080E090E00E945F0560E08DE00C94A30381
:1016A0000F931F93CF93DF9300D01F92CDB7DEB778
:1016B000AB0119821A821B82DC01ED91FC91019031
:1016C000F081E02D00E010E020E0BE016F5F7F4F71
:1016D00009950F900F900F90DF91CF911F910F916F
:1016E0000895FC0185859685089590E080E0089531
:1016F000FB0101900020E9F73197AF01461B570B22
:10170000DC01ED91FC910280F381E02D09940F93AF
:101710001F93CF93DF938C01D0E0C0E0F801EC0F72
:10172000FD1F6491662341F088E695E00E94A206C1
:10173000892B11F02196F2CF63E971E088E695E0FC
:101740000E94780B8C0F9D1FDF91CF911F910F91FD
:1017500008950F931F93CF93DF93EC010E94780BB2
:101760008C0163E971E0CE010E94780B800F911F1C
:10177000DF91CF911F910F9108958F929F92AF9219
:10178000BF92CF92DF92EF92FF920F931F93CF936E
:10179000DF93CDB7DEB7B82EA92E962E872EEDB6E5
:1017A000FEB67F936F939F938F931F921F921F920A
:1017B0001F920E94BC2A2DB73EB7285F3F4F0FB63D
:1017C000F8943EBF0FBE2DBF009711F1CDB6DEB627
:1017D0000196281B390B0FB6F8943EBF0FBE2DBFE4
:1017E0000DB71EB70F5F1F4F8F929F92AF92BF92A0
:1017F0009F938F931F930F930E94BC2AB80188E692
:1018000095E00E94A90B0FB6F894DEBE0FBECDBEC8
:101810000FB6F894FEBE0FBEEDBEDF91CF911F91C3
:101820000F91FF90EF90DF90CF90BF90AF909F907F
:101830008F9008956F927F928F929F92AF92BF92F6
:10184000CF92DF92EF92FF920F931F93CF93DF938C
:10185000CDB7DEB7B82EA92E942E852E762E672E04
:10186000EDB6FEB67F936F935F934F939F938F93E5
:101870001F921F921F921F920E94BC2A2DB73EB743
:10188000265F3F4F0FB6F8943EBF0FBE2DBF0097A7
:1018900021F1CDB6DEB60196281B390B0FB6F894B0
:1018A0003EBF0FBE2DBF0DB71EB70F5F1F4F6F920C
:1018B0007F928F929F92AF92BF929F938F931F932D
:1018C0000F930E94BC2AB80188E695E00E94A90BFC
:1018D0000FB6F894DEBE0FBECDBE0FB6F894FEBEB6
:1018E0000FBEEDBEDF91CF911F910F91FF90EF9052
:1018F000DF90CF90BF90AF909F908F907F906F9030
:1019000008956F927F928F929F92AF92BF92CF92E3
:10191000DF92EF92FF920F931F93CF93DF93CDB798
:10192000DEB7B82EA92E942E852E762E672EEDB614
:10193000FEB67F936F935F934F939F938F931F9206
:101940001F921F921F920E94BC2A2DB73EB7265F9E
:101950003F4F0FB6F8943EBF0FBE2DBF009721F149
:10196000CDB6DEB60196281B390B0FB6F8943EBFF4
:101970000FBE2DBF0DB71EB70F5F1F4F6F927F9227
:101980008F929F92AF92BF929F938F931F930F93CB
:101990000E94BC2AB80188E695E00E94A90B0FB608
:1019A000F894DEBE0FBECDBE0FB6F894FEBE0FBEDD
:1019B000EDBEDF91CF911F910F91FF90EF90DF90DF
:1019C000CF90BF90AF909F908F907F906F90089531
:1019D0002F923F924F925F926F927F928F929F923F
:1019E000AF92BF92CF92DF92EF92FF920F931F932D
:1019F000CF93DF9300D000D0CDB7DEB7182FF92EEC
:101A000069834A832B83298D2C83DA8CBB8C9C8C35
:101A10004DB65EB69F92BF92DF922F931F928F9228
:101A20001F92AF921F92CF921F92EF921F920F932D
:101A30001F923B813F931F928A818F931F9229812E
:101A40002F939F931F931F921F921F921F920E948A
:101A5000BC2A2DB73EB7265E3F4F0FB6F8943EBF67
:101A60000FBE2DBF0097B9F12DB63EB60196281BCB
:101A7000390B0FB6F8943EBF0FBE2DBF2F5F3F4FFF
:101A800039019F92BF92DF923C813F931F928F92C8
:101A90001F92AF921F92CF921F92EF921F920F93BD
:101AA0001F922B812F931F923A813F931F9229817E
:101AB0002F93FF921F939F938F937F926F920E9419
:101AC000BC2AB30188E695E00E94A90B0FB6F894F2
:101AD0003EBE0FBE2DBE0FB6F8945EBE0FBE4DBE0D
:101AE0000F900F900F900F90DF91CF911F910F915A
:101AF000FF90EF90DF90CF90BF90AF909F908F902E
:101B00007F906F905F904F903F902F900895FC01D1
:101B100080819181009711F00C94582908950E94BA
:101B20009E2AFC0180819181009711F00C944B2139
:101B300060E070E0CB0108950F931F93CF93DF9384
:101B4000EC0188819981009759F02A813B81261701
:101B5000370730F081E0DF91CF911F910F91089509
:101B60008B016F5F7F4F0E94E129009759F09983A5
:101B700088831B830A832C813D81232B59F7FC0129
:101B80001082E8CF80E0E7CFCF92DF92EF92FF9212
:101B90000F931F93CF93DF9300D0CDB7DEB78C01A7
:101BA000C62EFC01118210821382128215821482C9
:101BB00070E060E00E949C0DF8012081318181116C
:101BC00037C02115310519F0C9010E945829F801C3
:101BD0001182108215821482138212820E94BD0724
:101BE0000C2C000CDD0897FD2BC08C159D0541F1D8
:101BF00089831A82F801E480F580FFEFEF1AFF0A6B
:101C0000B701C8010E949C0D882379F0F80120815A
:101C1000318184819581BE016F5F7F4F820F931F59
:101C20000E94B52AF801F582E4820E94BD07DBCF4D
:101C30001582148265E971E0C9010E94B52ACECFF0
:101C4000C8010F900F90DF91CF911F910F91FF90DE
:101C5000EF90DF90CF9008951F920F920FB60F92E2
:101C600011242F933F938F939F93AF93BF938091B2
:101C7000580590915905A0915A05B0915B05309196
:101C8000530523E0230F2D3758F50196A11DB11DF3
:101C9000209353058093580590935905A0935A05B6
:101CA000B0935B058091540590915505A091560520
:101CB000B09157050196A11DB11D809354059093D5
:101CC0005505A0935605B0935705BF91AF919F91CD
:101CD0008F913F912F910F900FBE0F901F901895ED
:101CE00026E8230F0296A11DB11DD2CF1F920F929D
:101CF0000FB60F9211242F933F934F935F936F93DF
:101D00007F938F939F93AF93BF93EF93FF9388E657
:101D100095E00E948006FF91EF91BF91AF919F9156
:101D20008F917F916F915F914F913F912F910F9084
:101D30000FBE0F901F9018951F920F920FB60F9223
:101D400011242F938F939F93EF93FF93E091780546
:101D5000F09179058081E0917E05F0917F0582FD0B
:101D60001BC09081809181058F5F8F7320918205C8
:101D7000821741F0E0918105F0E0E859FA4F958F24
:101D800080938105FF91EF919F918F912F910F90FB
:101D90000FBE0F901F9018958081F4CF1F920F9265
:101DA0000FB60F9211242F933F934F935F936F932E
:101DB0007F938F939F93AF93BF93EF93FF93F0E045
:101DC000E0E00995FF91EF91BF91AF919F918F91C5
:101DD0007F916F915F914F913F912F910F900FBE27
:101DE0000F901F9018951F920F920FB60F9211240B
:101DF0002F933F934F935F936F937F938F939F9313
:101E0000AF93BF93EF93FF93E0911305F091140507
:101E1000309749F0A685B7858585968D91FF14C0CA
:101E20009C918923A1F4FF91EF91BF91AF919F9174
:101E30008F917F916F915F914F913F912F910F9073
:101E40000FBE0F901F9018959C91892361F7A3896D
:101E5000B4899C918589809589238C9386899789FB
:101E60000197F1F7608D718DA685B785558538E0AE
:101E700020E0CB010197F1F7822F90E095958795AF
:101E8000282F4C91452309F02068315091F7868D19
:101E900081FD20958091120590E001968F7399271E
:101EA00030911105381799F0A0911205B0E0AA54AD
:101EB000BB4F2C9380931205828D938D0197F1F780
:101EC000A389B4898C919589892B8C93ACCF868D0D
:101ED0008160868FF1CF10926B0510926A0588EEB3
:101EE00093E0A0E0B0E080936C0590936D05A09323
:101EF0006E05B0936F0523E731E0309369052093B9
:101F0000680525EC30E0309375052093740524ECCA
:101F100030E0309377052093760520EC30E0309365
:101F200079052093780521EC30E030937B052093F0
:101F30007A0522EC30E030937D0520937C0526EC79
:101F400030E030937F0520937E051092810510923A
:101F50008205109283051092840510922906109232
:101F6000280680932A0690932B06A0932C06B09304
:101F70002D0685E891E0909327068093260610921F
:101F80003D0610923C0610923F0610923E061092BB
:101F9000410610924006109243061092420660914C
:101FA00044066E7F6D7F609344066695617081E0A4
:101FB000682783E00E94A30361E083E00E94D103CD
:101FC000E9E3F6E0E491E0933606E5E2F6E0E49139
:101FD000F0E0EE0FFF1FE85EF94F8591949190932A
:101FE00038068093370660E082E00E94D10380913A
:101FF000440681FD04C061E082E00E94A30382E008
:1020000080933206E8E3F6E0E491E0933306E4E2FD
:10201000F6E0E491F0E0EE0FFF1FE25FF94F8591EB
:102020009491909335068093340610922506ECE344
:10203000F6E0249120930906EDE3F6E0E491E093C5
:102040000A0688E296E0FC013491E32FF0E0EE0FFF
:10205000FF1FE85EF94F4591549150930C06409351
:102060000B06E9E2F6E0E491F0E0EE0FFF1FE25F1D
:10207000F94F4591549150930E0640930D06FC0183
:102080008491E82FF0E0EE0FFF1FEC5FF94FA59170
:10209000B491B0931006A0930F061092170685E630
:1020A0009FE19093120680931106EC912E2B2C93B6
:1020B000E0910B06F0910C069081809109068095C5
:1020C000892380838FEF80934506109247061092F4
:1020D000460610925106109250068FEF9FEFDC01DA
:1020E00080934C0690934D06A0934E06B0934F06F6
:1020F0000895CF93DF93CDB7DEB76E970FB6F89400
:10210000DEBF0FBECDBF789484B5826084BD84B538
:10211000816084BD85B5826085BD85B5816085BDE2
:1021200080916E00816080936E001092810080919A
:102130008100826080938100809181008160809322
:102140008100809180008160809380008091B10047
:1021500084608093B1008091B00081608093B00072
:1021600080917A00846080937A0080917A00826006
:1021700080937A0080917A00816080937A008091C8
:102180007A00806880937A001092C10061E08DE04F
:102190000E94D10360E084E00E94D10360E088E007
:1021A0000E94D10361E089E00E94D10361E089E0EF
:1021B0000E94A30380910905811145C01092FB0480
:1021C0001092FA048FEF8093FE048093FF048093B3
:1021D000000580930105809302058093030581E04B
:1021E0008093040510920605109205051092FD04D7
:1021F0001092FC048091620590916305892B31F463
:1022000088EF94E09093630580936205E091F60473
:10221000F091F704309721F088EF94E09583848360
:1022200088EF94E09093F7048093F60410920805E9
:10223000109207058BE591E09093F9048093F804E0
:1022400081E080930905229A86E195E09093FB0452
:102250008093FA0481E090E0909306058093050551
:102260008091480690914906A0914A06B0914B068C
:10227000843C09E09007A105B10520F484EC99E0C5
:10228000A0E0B0E08093480690934906A0934A06E8
:10229000B0934B0661E08BE00E94D10361E08CE0DB
:1022A0000E94D10387B18C6387B988B188B9E09166
:1022B0007805F091790582E08083E0917405F091D2
:1022C00075051082E0917605F09177058FEC80839B
:1022D00010928005E0917C05F0917D0586E0808379
:1022E000E0917A05F0917B05808180618083E091A7
:1022F0007A05F0917B05808188608083E0917A0582
:10230000F0917B05808180688083E0917A05F0916F
:102310007B0580818F7D808310924106109240065C
:1023200010923F0610923E0610923D0610923C0617
:102330008DE991E090934306809342069091320696
:10234000963108F047C02DEB30E030933D062093E6
:102350003C062BE931E030933F0620933E062CE209
:1023600031E030934106209340062091680084E0DC
:10237000983048F031E09E3008F430E081E001C050
:10238000880F3A95EAF7822B809368002DE630E0BB
:10239000983050F02BE630E09E3030F02CE630E004
:1023A000963110F030E020E030933A062093390661
:1023B000292F30E0983008F094C081E001C0880FE8
:1023C0009A95EAF780933B068091420690914306E6
:1023D0000197F1F78091400690914106892B49F1D0
:1023E000E0911305F091140516E0E632F10709F1CA
:1023F000309739F0A389B4899C9185898095892388
:102400008C93809144068E7F80934406109212052F
:102410001092110586E296E09093140580931305BF
:10242000E0913906F0913A06808190913B06892B24
:1024300080838AE392E00E94870B60ED77E080E082
:1024400090E00E945F0587E292E00E94870B84E0A3
:102450000E947A039093400580933F058EE00E948E
:10246000020490934205809341058091150528EC64
:10247000829FC0011124803D974008F448C180919B
:102480002506882309F0F894EBE3F6E0F490E7E200
:10249000F6E08491E82FF0E0EE0FFF1FE25FF94FC6
:1024A0000591149161E085E00E94D10360E085E030
:1024B0000E94A3038BE99FE00197F1F761E085E0BB
:1024C0000E94A30360E085E00E94D10380E293E0D4
:1024D000D8012C912F2191F00197D1F7BDEFDB2E80
:1024E00064C09E3040F42850310981E001C0880F5B
:1024F0002A95EAF767CF2E503109F7CF80E991E0AE
:10250000F80120812F2129F40197D1F7ACEFDA2EC1
:102510004CC080E991E0D8012C912F2151F0019716
:10252000D1F7FBEFDF2E41C06E2F21110DC0D12C52
:102530003CC0D12CF0E030E8912C812C80E991E076
:1025400040E951E060E028E2D801EC91EF2141F54B
:10255000662331F1233208F4B4C08417950708F4D8
:10256000AC0180E9882E99249394A12CB12C841A73
:10257000950AA108B10892E0B594A794979487941E
:102580009A95D1F7369549F4AD2DB0E0A85EB94FD4
:102590001896FC93D394F0E030E8215080E991E064
:1025A000019709F0C1CF1EEFD12E80912506882317
:1025B00009F07894009120060370F02E0093200615
:1025C00010912206B12FB378EB2EB0932206009122
:1025D00021066F2D70E0762F6627600F711D072E84
:1025E000000C880B990B0E947B242DEC3CEC4CECEE
:1025F0005DE30E94DA2460931806709319068093B5
:102600001A0690931B06C09023061370612F70E08A
:10261000762F66276C0D711D6115710509F05AC082
:1026200010921C0610921D0610921E0610921F0694
:102630000C0DF00EEF0C80912406E81609F463C02F
:10264000DD24DA941F92DF92E6E9F1E0FF93EF9345
:102650001F921F921F921F920E94BC2A2DB73EB755
:10266000285F3F4F0FB6F8943EBF0FBE2DBF0097B7
:1026700009F44BC0EDB6FEB60196ADB7BEB7A81BC8
:10268000B90B0FB6F894BEBF0FBEADBF0DB71EB7E6
:102690000F5F1F4F1F92DF92E6E9F1E0FF93EF9388
:1026A0009F938F931F930F930E94BC2AB80188E6D3
:1026B00095E00E94A90B0FB6F894FEBE0FBEEDBECA
:1026C00024C0BA01681979096817790708F45ACF44
:1026D000F32B58CF072E000C880B990B0E947B24FC
:1026E0002DEC3CEC4CEC5DE30E94DA24E7FC09C0E5
:1026F00060931C0670931D0680931E0690931F0620
:1027000097CF9058F5CFD1109DCF1092150580919D
:102710001C0690911D06A0911E06B0911F06809385
:10272000430590934405A0934505B09346058091D9
:10273000180690911906A0911A06B0911B06809375
:10274000470590934805A0934905B0934A05E09149
:102750000F06F0911006808190910906892B8083E5
:10276000E0910B06F0910C06808190910906892B6F
:1027700080838BE290E00197F1F7E0910B06F091F6
:102780000C06908180910906809589238083809131
:102790001706882351F0E0910F06F0911006908102
:1027A00080910906809589238083E0910D06F09140
:1027B0000E06808190910A06892309F4F1C390E006
:1027C00080E0BC0190E080E029E330E040E050E0B0
:1027D0000E947928DA01C9010397A109B1098A3851
:1027E0009105A105B10540F420934B0530934C05AC
:1027F00040934D0550934E058FE00E940204909344
:10280000500580934F0588E00E947A036C019093F5
:10281000520580935105A0903F05B09040058091EE
:102820002B0590912C05E0904105F09042054090D9
:102830004B0550904C0560904D0570904E050091F1
:102840004F05109150058A159B0509F04CC08091E9
:102850002D0590912E058E159F0509F044C02091FD
:102860002F0530913005409131055091320560912E
:1028700043057091440580914505909146050E945D
:102880007424811130C02091470530914805409152
:10289000490550914A056091330570913405809146
:1028A0003505909136050E94742481111CC08091D9
:1028B000370590913805A0913905B0913A058415F6
:1028C0009505A605B70579F480913B0590913C05E7
:1028D0008017910741F480913D0590913E05C816FF
:1028E000D90609F4A2C081E0AB2809F480E0809306
:1028F0001905B70190E080E00E9479242AE038E2CF
:1029000040EA5BE30E94DA249B01AC0160E070E0E6
:1029100080EA90E40E94222620E030E040E85FE375
:102920000E94B52520E030E04FEA55E40E94DA2409
:1029300028E834EF43EB5FEB0E9420272CE830E3DC
:1029400045EC5CE40E94DA240E94942670931B05F7
:1029500060931A058091430590914405A091450527
:10296000B091460580931C0590931D05A0931E050C
:10297000B0931F058091470590914805A0914905A6
:10298000B0914A058093200590932105A0932205DC
:10299000B0932305409224055092250560922605A8
:1029A000709227056FEF73E0601B710B90E080E081
:1029B0000E9479244B015C01B80190E080E00E9404
:1029C00079249B01AC01C501B4010E9422262DEDA2
:1029D0003CE041EC5FE30E9422260E94C8262DE3E2
:1029E0003AE047E55EE30E94B52527ED33EA40EF84
:1029F0005EEB0E94222623E333E343E150E40E948E
:102A0000B6259B01AC0160E070E080E291E40E9499
:102A100020270E949426709329056093280581E061
:102A2000CD2809F480E080932A05809115058F5FF9
:102A3000809315058091190590910001992309F45F
:102A40009FC4882309F4ECC389ED95E00E94870BAD
:102A500080911A0590911B050091010110910201CE
:102A60000817190708F40EC3B80182EC91E00E9420
:102A7000BD0B80911B0181110FC080913301811129
:102A80000BC08BEB95E00E94870B61E08CE00E940D
:102A9000A30381E080931B0180911C01811112C06E
:102AA0008091340181110EC085E995E00E94870B69
:102AB00040E050E060E07FE380E00E94920582E029
:102AC00080931C0180901C0590901D05A0901E0510
:102AD000B0901F05C0900501D0900601E09007015D
:102AE000F0900801A7019601C501B4010E94742469
:102AF00018160CF44CC3B701A60185E992E00E94B8
:102B00001A0C80911E01882361F080913601811199
:102B100008C086E195E00E94870B0E94420B10924C
:102B20001E018090200590902105A0902205B09074
:102B30002305C0900D01D0900E01E0900F01F090A0
:102B40001001A7019601C501B4010E947424181652
:102B50000CF445C3B701A60189E193E00E941A0C69
:102B600080911D01882361F080913501811108C099
:102B700085EE94E00E94870B0E94420B10921D018B
:102B80008091240590912505A0912605B0912705F7
:102B90004091110150911201609113017091140143
:102BA0000CE810E020E030E0041B150B260B370B7F
:102BB00080179107A207B30708F49BC38DE893E041
:102BC0000E94810C80911F0181110DC080913701FD
:102BD000811109C08BE894E00E94870B0E94420B90
:102BE00081E080931F01809120018823C9F08091AA
:102BF0003801811115C08BE594E00E94870B61E0DC
:102C00008BE00E94A30340E050E060E070E481E0CC
:102C10000E94920560E08BE00E94A30310922001C5
:102C200080912201882351F080912101811106C0F9
:102C300061E089E00E94A3031092220120912805FF
:102C4000309129058091190190911A0128173907AF
:102C500008F4F5C38BEC92E00E94870B8091210170
:102C600081110DC080913901811109C083EA92E080
:102C70000E94870B0E94420B81E08093210180918A
:102C8000220181110FC080913A0181110FC089E8A2
:102C900092E00E94870B60E089E00E94A30381E03C
:102CA0008093220180913A01882329F060912E01BE
:102CB00089E00E94A30320913F0530914005809157
:102CC0002B0590912C052817390709F0A3C0809196
:102CD00041059091420520912D0530912E05821BD2
:102CE000930B97FF03C091958195910945970CF03F
:102CF00091C020912F0530913005409131055091C0
:102D0000320560914305709144058091450590918D
:102D100046050E94B5256B017C0120E030E0A90149
:102D20000E94C326181624F0F7FAF094F7F8F094EE
:102D300029E939E949E150E4C701B6010E94C326F7
:102D400018160CF467C0209133053091340540917A
:102D50003505509136056091470570914805809181
:102D6000490590914A050E94B5256B017C0120E040
:102D700030E0A9010E94C326181624F0F7FAF09457
:102D8000F7F8F09420E030E040E050E4C701B601ED
:102D90000E94C3261816F4F180914B0590914C05C2
:102DA000A0914D05B0914E054091370550913805E1
:102DB0006091390570913A05841B950BA60BB70BF2
:102DC000B7FF07C0B095A095909581959F4FAF4FE5
:102DD000BF4F0897A105B105ECF480914F05909184
:102DE000500520913B0530913C05821B930B97FFCA
:102DF00003C0919581959109459764F420915105FF
:102E00003091520580913D0590913E052817390774
:102E100009F4A4C040902805109129051A878090D4
:102E20002405709025056090260550902705009197
:102E300020050B87B0902105A090220590902305D6
:102E400010911C051C8700911D050D87D0901E0553
:102E5000C0901F0510911A051E87E0901B05209059
:102E60002A05F09019051F922F920A850F934F9211
:102E70005F926F927F928F929F92AF92BF921B85CB
:102E80001F93CF92DF920D850F931C851F93EF92B6
:102E90000E850F931F92FF9205E014E01F930F938E
:102EA0001F921F921F921F920E94BC2A2DB73EB7FD
:102EB000265E3F4F0FB6F8943EBF0FBE2DBF009762
:102EC00009F443C0ADB7BEB7B88BAF870196EDB775
:102ED000FEB7E81BF90B0FB6F894FEBF0FBEEDBFAF
:102EE0002DB73EB72F5F3F4F38872F831F922F920A
:102EF0003A853F934F925F926F927F928F929F920B
:102F0000AF92BF924B854F93CF92DF92AD85AF9337
:102F1000BC85BF93EF92EE85EF931F92FF921F93B4
:102F20000F939F938F93F885FF932F930E94BC2A52
:102F30006F81788588E695E00E94A90B0F85188936
:102F40000FB6F8941EBF0FBE0DBF84E1EFE3F5E0AE
:102F5000ABE2B5E001900D928A95E1F786E296E04A
:102F60000E949C07CA9709F485C286E296E00E94F7
:102F70009C070196D1F70E94420B68EC70E080E05C
:102F800090E00E945F0580E090E0892B09F45FCA21
:102F90000E946C06882309F45ACA0E94000057CA8E
:102FA0000E941404AB01BC0180911106909112069D
:102FB000B0E0A0E08855994EAF4FBF4F840F951FEA
:102FC000A61FB71F8093130690931406A0931506AF
:102FD000B0931606E0910D06F0910E068081909157
:102FE0000A06892381F40E941404009113061091AB
:102FF00014062091150630911606061717072807A4
:10300000390740F7DCCB0E9414042091110630915F
:103010001206620F731F811D911D6093130670933A
:1030200014068093150690931606E0910D06F09114
:103030000E06808190910A06892381F00E94140473
:103040000091130610911406209115063091160672
:10305000061717072807390740F7B1CB0E94140459
:103060002091110630911206A90145505109209175
:10307000130630911406DA01A21BB30BCD01860FA3
:10308000971F9FCB809003019090040188159905AC
:1030900050F1B40185E092E00E94BD0B80911B01CC
:1030A000882371F08091330181110AC086E795E091
:1030B0000E94870B60E08CE00E94A30310921B012A
:1030C00080911C01813009F0FDCC80913401811187
:1030D000F9CC80E595E00E94870B40E050E060E08D
:1030E0007FE381E0EACC9F928F921F930F9348E495
:1030F000C42E42E0D42EDF92CF921F921F921F92D5
:103100001F920E94BC2AEDB7FEB73A960FB6F8940C
:10311000FEBF0FBEEDBF009731F1ADB6BEB6019652
:103120002DB73EB7281B390B0FB6F8943EBF0FBE24
:103130002DBFADB7BEB711967D019F928F921F93A1
:103140000F93DF92CF929F938F93FF92AF930E9442
:10315000BC2AB70188E695E00E94A90B0FB6F89447
:10316000BEBE0FBEADBE80911B01882309F4AACC60
:10317000809133018111A6CC81E395E00E94870BF9
:1031800060E08CE00E94A30310921B019BCCC090D6
:103190000901D0900A01E0900B01F0900C01A70109
:1031A0009601C501B4010E94C32687FDBACCB701C0
:1031B000A60187ED92E00E941A0C80911E018111F8
:1031C000B0CC809136018111ACCC8CEF94E00E94A0
:1031D000870B0E94420B81E080931E01A2CCA701C5
:1031E0009601C501B4010E94C32618160CF0C8CC84
:1031F000B701A60183E593E00E941A0C80911D019E
:103200008111BECC809135018111BACC80ED94E062
:103210000E94870B0E94420B81E080931D01B0CC7D
:103220008CEA94E00E94870B80911B01882351F067
:1032300080913301811106C060E08CE00E94A303FD
:1032400010921B0160911C016623B1F08091340142
:10325000811112C070E081E090E00E946528072E85
:10326000000C880B990B0E947B24AB01BC0181E010
:103270000E94920510921C0180911E01882341F04A
:1032800080913601811104C00E94420B10921E01F0
:1032900080911D01882341F080913501811104C086
:1032A0000E94420B10921D018091230190912401F4
:1032B000A0912501B0912601892B8A2B8B2B09F433
:1032C0005FCC80913B0190913C01A0913D01B09178
:1032D0003E01892B8A2B8B2B09F052CC10921605BC
:1032E0001092170510921805809145060E94390426
:1032F00047CC4091150150911601609117017091D2
:1033000018010CE810E020E030E0041B150B260B40
:10331000370B081719072A073B0708F481CC89ECFB
:1033200093E00E94810C80911F01882351F08091CD
:103330003701811106C088E294E00E94870B109249
:103340001F018091200181116BCC80913801811186
:1033500067CC88EF93E00E94870B61E08BE00E94CE
:10336000A30340E050E060E070E480E00E9492053A
:1033700060E08BE00E94A30381E08093200150CCA9
:10338000882359F08BEB93E00E94870B60E089E083
:103390000E94A30381E080932201809124059091F3
:1033A0002505A0912605B091270540911101509166
:1033B000120160911301709114010CE810E020E0FB
:1033C00030E0041B150B260B370BB901A80184173D
:1033D0009507A607B707B8F440911501509116015B
:1033E00060911701709118010CE810E020E030E0C6
:1033F000041B150B260B370BB901A80148175907F9
:103400006A077B0760F087E993E00E94870B86E7F5
:1034100093E00E94870B83E493E00E94870B8091E6
:103420002A0581110BCC84EE92E00E94870B60E0AC
:1034300089E00E94A30381E080932201FFCB809169
:103440002201882309F42ECC80912101882309F4DC
:1034500029CC80913901811125CC8BE692E00E9424
:10346000870B1092210161E089E00E94A303109272
:10347000220118CC86E296E00E949C078E3709F064
:1034800020C10E94BD0797FD05C089870E94BD0726
:1034900097FF8C8F86E296E00E949C072C01990F83
:1034A0006608770886E296E00E949C07182F86E25D
:1034B00096E00E949C07F82E0E94BD0797FD05C06C
:1034C000382E0E94BD0797FF8B8F6AE0CE010196D0
:1034D0000E94C40DCE0101960E94870D6985661F6A
:1034E0006627661F60932701298525FB442740F93D
:1034F000409328012295217020932901398533FBBF
:10350000002700F900932A0132FBEE24E0F8E09254
:103510002B0131FBCC24C0F8C0922C013170A32EBA
:1035200030932D018C8C881C8824881C80922E015D
:103530003201552444244F281A8B198AE989FA89C3
:10354000CF01B0E0A0E084299529A629B72980936E
:103550002F0190933001A0933101B0933201BF93BA
:10356000AF939F938F9380E294E00E94E80C632DC9
:10357000661F6627661F6093330136FA442740F9B9
:103580004093340135FA222720F92093350134FA8B
:10359000002700F90093360133FAEE24E0F8E092B8
:1035A000370132FACC24C0F8C092380131FAAA248B
:1035B000A0F8A0923901F32DF1708F2EF0933A010B
:1035C0001B8D812F110F990B8827990F881F992721
:1035D000092E000CAA0BBB0B80933B0190933C017E
:1035E000A0933D01B0933E01BF93AF939F938F9300
:1035F0008AE594E00E94E80C2DB73EB7285F3F4F64
:103600000FB6F8943EBF0FBE2DBF86E296E00E9433
:103610009C070196D1F780913301882341F01091E6
:103620002701612F8CE00E94A30310931B0180915E
:1036300034018823D9F080911C0110912801811751
:10364000A9F08111E5C1612F70E081E090E00E9456
:103650006528072E000C880B990B0E947B24AB0178
:10366000BC0180E00E94920510931C0180913501FD
:10367000882321F08091290180931D0180913601DA
:10368000882321F080912A0180931E0180913701C7
:10369000882309F4D7C180912B01882309F4D2C172
:1036A00061E08BE00E94A30388E00E947A03019707
:1036B00009F0C4C164E670E080E090E00E945F051C
:1036C000F3CF813209F0A1CF60E2CE0101960E94D2
:1036D000C40D8D819E81892B49F06CE774E089814E
:1036E0009A810E94AC2A21E0892B09F020E02093E6
:1036F0000001CE0101960E94870D60E2CE01019685
:103700000E94C40DCE0101960E94910D709302019A
:1037100060930101CE0101960E94870D60E2CE0107
:1037200001960E94C40DCE0101960E94910D7093E6
:10373000040160930301CE0101960E94870D60E2AF
:10374000CE0101960E94C40D89819A81009709F4E7
:1037500052C10E9447216093050170930601809336
:10376000070190930801CE0101960E94870D60E247
:10377000CE0101960E94C40D89819A81009709F4B7
:103780003EC10E9447216093090170930A01809312
:103790000B0190930C01CE0101960E94870D60E20F
:1037A000CE0101960E94C40D89819A81009709F487
:1037B0002AC10E944721F62EE72ED82EC92EA70136
:1037C0009601852F9E2DA32FBC2D80930D019093E4
:1037D0000E01A0930F01B0931001CE0101960E943B
:1037E000870D60E2CE0101960E94C40DCE010196C4
:1037F0000E94910DB62EA72E982E892E609311014E
:10380000709312018093130190931401CE010196DD
:103810000E94870D60E2CE0101960E94C40DCE0188
:1038200001960E94910D762E672E582E492E609398
:103830001501709316018093170190931801CE0122
:1038400001960E94870D6AE0CE0101960E94C40D88
:10385000CE0101960E94910D6A87272E609319016F
:1038600070931A01CE0101960E94870D0091090103
:103870000C8710910A011D8700910B010E87109192
:103880000C011F87009105010B8B109106011C8B09
:10389000009107010D8B109108011E8B009103010F
:1038A0000F8B10910401188F00910101098F109165
:1038B00002011A8F009100010B872F921A851F9326
:1038C0004F925F926F927F928F929F92AF92BF9230
:1038D000CF92DF92EF92FF920F850F931E851F9379
:1038E0000D850F931C851F930E890F931D891F93C0
:1038F0000C890F931B891F93088D0F931F891F93AA
:103900000A8D0F93198D1F931F920B850F930EE74E
:1039100014E01F930F931F921F921F921F920E94F9
:10392000BC2A2DB73EB72E5D3F4F0FB6F8943EBF71
:103930000FBE2DBF009709F468CEADB7BEB7BE8FDE
:10394000AD8F0196EDB7FEB7E81BF90B0FB6F894F3
:10395000FEBF0FBEEDBF2DB73EB72F5F3F4F38877D
:103960002F832F923A853F934F925F926F927F926F
:103970008F929F92AF92BF92CF92DF92EF92FF927F
:103980004F854F93AE85AF93BD85BF93EC85EF9385
:10399000FE89FF932D892F933C893F934B894F9349
:1039A000A88DAF93BF89BF93EA8DEF93F98DFF93F5
:1039B0001F922B852F931F930F939F938F9338857F
:1039C0003F934F814F930E94BC2A8DB79EB782963A
:1039D0000FB6F8949EBF0FBE8DBF6F81788588E6C5
:1039E00095E00E94A90B0D8D1E8D0FB6F8941EBF99
:1039F0000FBE0DBF0ACE60E070E0CB01ACCE60E040
:103A000070E0CB01C0CEF12CE12CD12CC12CD7CE53
:103A1000813061F440E050E060E87FE3112321F061
:103A200040E050E060E07FE381E01CCE81E01111D6
:103A300080E040E050E060E07FE314CE60E08BE0A7
:103A40000E94A30380913801882321F110912C0159
:103A5000809120018117F1F061E08BE00E94A303C7
:103A600064E670E080E090E00E945F0540E050E096
:103A700060E870E481E081270E94920564E670E0CE
:103A800080E090E00E945F0560E08BE00E94A3036D
:103A90001093200180913901882359F010912D0154
:103AA00061E0612789E00E94A30310932201109333
:103AB000210180913A01882341F060E089E00E9471
:103AC000A30380912E018093220180913B0190916C
:103AD0003C01A0913D01B0913E01892B8A2B8B2B9B
:103AE00009F449CA80912F01909130012091310150
:103AF000209316059093170580931805809145062D
:103B00000E94390480912F0190913001A0913101E0
:103B1000B09132018093230190932401A093250159
:103B2000B093260128CA85E891E0909327068093F8
:103B3000260680911305909114058652964071F4E3
:103B4000E0913906F0913A06908180913B0680958C
:103B50008923808310921405109213050895AFE015
:103B6000B0E0E5EBFDE10C9410216C011B015A0162
:103B7000FC0117821682838181FF48C39E012F5F5B
:103B80003F4F4901F6019381F10193FD859193FF28
:103B900081911F01882309F4E7C2853239F493FD2E
:103BA000859193FF81911F01853239F4B60190E030
:103BB0000E94752235015301E5CFF12C512C00E014
:103BC000003238F48B3209F190F48032F9F083320C
:103BD00009F107FD34C020ED280F2A3020F506FF3B
:103BE0001BC0FAE0FF9E200D1124F22E05C08D327D
:103BF00079F0803371F70160F10193FD859193FFB6
:103C000081911F018111DCCF1AC002600460F4CFE2
:103C10000860F2CF0061F0CF3AE0539E200D1124EE
:103C2000522E0062E9CF8E3221F406FD9DC200645F
:103C3000E3CF8C3611F40068DFCF8836E9F29BEBD6
:103C4000980F933008F05FC00061805E06FD02C0EF
:103C500046E0F42E102F1F73853609F05BC0106408
:103C600017FF61C08F2D9BE39F1508F48BE344245D
:103C70004394480E27E03501F4E06F0E711CF50106
:103C80006081718182819381042DA4010E9472213F
:103C90005C01F981FC87F0FF03C00DE2F3FF07C070
:103CA0000BE211FD04C0012F047012FD00E22C850F
:103CB0002C70E22E09F457C00111ABC2F3E0E12CE5
:103CC000F515A0F483E0E52CE81A13FD08C0B60151
:103CD00080E290E00E947522EA94E110F8CF002380
:103CE00029F0B601802F90E00E9475223C852AEED3
:103CF000A22E20E0B22E33FD04C09EEEA92E90E04D
:103D0000B92E107122C09BE9980F933008F033C18F
:103D10000F7E9CCF863611F41068A2CFFF2009F4E5
:103D20009FCFFA949DCFE7E02F2DEF1518F427E0F1
:103D300037E0F32E412C9FCF11118052B60190E055
:103D40000E9475228FEFA81AB80AF501849181119B
:103D5000F3CFEE2009F42FCFB60180E290E00E946D
:103D60007522EA94F6CF17FF6FC04A0CFC85F4FF6A
:103D700004C08A81813309F44A9414140CF086C07B
:103D800028E0241510F488E0482E85E090E017FF25
:103D900006C0C501B7FE02C090E080E001960111A7
:103DA0000196FF2031F02F2D30E02F5F3F4F820F23
:103DB000931F5816190619F014F0E52CE81A812FF4
:103DC000897011F4E11067C0002329F0B601802F3B
:103DD00090E00E94752213FD02C0E11063C017FF3E
:103DE0007CC08501B7FE02C010E000E0C501841967
:103DF00091092C016F2D70E0EE27FF27E61BF70BD2
:103E0000FF87EE870F3F100729F4B6018EE290E09E
:103E10000E947522A016B1060CF44BC04016510644
:103E20000CF047C0F501E01BF10BE80DF91D818195
:103E3000015011092E853F8502171307E4F1B601E1
:103E400090E00E947522DECF16FD9FCFEF2DF0E0AF
:103E5000EA15FB0534F03CEFA3163FEFB3060CF078
:103E600010683296E80DF91D01C0FA94FF2019F090
:103E700082918033D1F317FF88CF442443944F0CB1
:103E8000FA141B0431F02CF0FA187FCF4424439429
:103E90007CCFF12C7ACFB60180E290E00E947522AF
:103EA000EA9490CFB60180E390E00E947522EA94F4
:103EB00094CF80E3BDCFA016B10641F49A8196332A
:103EC00050F4953319F43C8534FF05C0B60190E0F9
:103ED0000E9475223ECF81E3F9CF8A81813319F0A8
:103EE0009C859F7E9C87B60190E00E947522FF20F2
:103EF000A9F0B6018EE290E00E947522F394F3944B
:103F0000E2E001E00E0FE80DF92DF11D8081B60110
:103F100090E00E947522E02F0F11F3CF85E690E02C
:103F200014FF02C085E490E0B6010E947522B7FC40
:103F300006C0A114B104C1F4EC85E4FF15C0B1942E
:103F4000A194B1088DE2B60190E00E94752280E351
:103F50002AE0A216B10454F4B60190E00E94752242
:103F6000B601C501C096B4CF8BE2EDCF8F5FFAE00A
:103F7000AF1AB108EDCF8336C9F0833771F18335BD
:103F800009F05BC03501F2E06F0E711CF501A080F5
:103F9000B1806F2D70E006FD02C06FEF7FEFC501AD
:103FA0000E944A229D878C8700680DC0350132E04F
:103FB000630E711CF5018081898321E030E03D872B
:103FC0002C8754010F7703FD06C02C853D855216C2
:103FD000130609F0A8F4E52C2BC0350132E0630E7E
:103FE000711CF501A080B1806F2D70E006FD02C04C
:103FF0006FEF7FEFC5010E9455229D878C87E2CF2E
:10400000B60180E290E00E9475225A94DECFF5015D
:1040100007FD859107FF81915F01B60190E00E9445
:104020007522E110EA948C859D8501979D878C8788
:10403000EC85FD85EF2B59F78CCE843619F0893647
:1040400009F074C0350107FF66C0F4E06F0E711C03
:10405000F5016081718182819381102F1F7697FF16
:1040600008C090958095709561957F4F8F4F9F4FB9
:1040700010682AE030E0A4010E94A522A82EA8180A
:10408000BA2C012F16FF0AC00E7FAF1438F414FFAC
:1040900004C012FD02C0012F0E7EBF2C04FF8EC093
:1040A000FE01EA0DF11D8081803309F080C0097E98
:1040B000F02FF870EF2E03FD90C000FF8AC0FA2C9D
:1040C000B51410F4F50CFB1804FF8DC0B60180E3A5
:1040D00090E00E94752202FF09C088E790E001FF8E
:1040E00002C088E590E0B6010E947522AF1408F482
:1040F00086C0AA940A2D10E00F5F1F4F080D191DEE
:10410000F80182918F01B60190E00E94752280161D
:104110009106B1F71ECEF2E06F0E711CF5016081C1
:104120007181072E000C880B990B97CF102F8537C4
:10413000A9F41F7E2AE030E0350117FF2FC0F4E01C
:104140006F0E711CF5016081718182819381A401E0
:104150000E94A522A82EA8181F7792CF197F8F360C
:10416000D1F048F4883591F0F601868197812F9639
:10417000E2E10C942C21803739F08837A9F714FD3F
:10418000146020E130E0D8CF1061F9CF04FD166053
:1041900020E132E0D1CF28E030E0CECFF2E06F0E68
:1041A000711CF5016081718190E080E0D0CF02FD4B
:1041B00002C0B3947DCFB394B3947ACF802F867826
:1041C00009F476CFF6CFB60180E290E00E94752226
:1041D000B394B514C0F3E12C77CFE52CEB18B514EC
:1041E00008F472CFF8CF802F867809F47FCF8BE266
:1041F00001FF80E207FD8DE2B60190E075CFB601C8
:1042000080E390E00E947522FA9470CF8FEF9FEFC9
:10421000AECF24E0E12C251508F063CD84E053CD2A
:104220002F923F924F925F926F927F928F929F92C6
:10423000AF92BF92CF92DF92EF92FF920F931F93B4
:10424000CF93DF93CDB7DEB7CA1BDB0B0FB6F89465
:10425000DEBF0FBECDBF09942A88398848885F84A5
:104260006E847D848C849B84AA84B984C884DF8016
:10427000EE80FD800C811B81AA81B981CE0FD11DFA
:104280000FB6F894DEBF0FBECDBFED0108956627CF
:1042900077270C9403231F93FC0199278827BC01DF
:1042A000E89411911032E9F3193010F01E30C8F380
:1042B0001B3251F01D3249F4689406C00E946022FE
:1042C000610F711D811D911D119110531A30B0F3B2
:1042D0003EF490958095709561957F4F8F4F9F4FDD
:1042E0001F910895283008F027E03327DA01990F4D
:1042F000311D87FD916000966105710539F43260CA
:104300002E5F3D9330E32A95E1F708959F3F30F00B
:1043100080387105610509F03C5F3C5F3D93913049
:1043200008F08068911DDF93CF931F930F93FF9246
:10433000EF92192F987F9695E92F96959695E90F0C
:10434000FF27E45BFE4F99273327EE24FF24A701C4
:10435000E70105900894079428F4360FE71EF81E2D
:10436000491F511D660F771F881F991F0694A1F7DB
:104370000590079428F4E70EF81E491F561FC11D2B
:10438000770F881F991F661F0694A1F70590079461
:1043900028F4F80E491F561FC71FD11D880F991FFB
:1043A000661F771F0694A1F70590079420F4490F24
:1043B000561FC71FD81F990F661F771F881F0694A7
:1043C000A9F784911095177041F0D695C795579528
:1043D0004795F794E7941A95C1F7E2EFF0E06894F7
:1043E0001590159135916591959105907FE27395A2
:1043F000E118F10A430B560BC90BD009C0F7E10CC9
:10440000F11E431F561FC91FD01D7EF4703311F4D7
:104410008A95E6CFE894015030F0080F0AF400279F
:10442000021708F4202F2395022F7A3328F079E31E
:104430007D932A95E9F710C07D932A9589F6069415
:1044400097956795379517951794E118F10A430BDF
:10445000560BC90BD00998F023957E9173957A334A
:1044600008F070E37C932013B8F77E9170617D9320
:1044700030F0839571E37D9370E32A95E1F7112481
:10448000EF90FF900F911F91CF91DF91992787FDBA
:1044900090950895FC010590615070400110D8F787
:1044A000809590958E0F9F1F0895FC01615070407C
:1044B00001900110D8F7809590958E0F9F1F089559
:1044C000592F482F372F262F660F771F881F991FC8
:1044D000660F771F881F991F620F731F841F951F18
:1044E000660F771F881F991F08950F931F93CF930F
:1044F000DF93182F092FEB018B8181FD09C01FEF7E
:104500000FEF812F902FDF91CF911F910F91089581
:1045100082FF14C02E813F818C819D81281739072D
:104520003CF4E881F981CF01019699838883108357
:104530008E819F8101969F838E83E3CFE885F985E5
:10454000812F0995892BA1F3DACFFA01AA27283008
:1045500051F1203181F1E8946F936E7F6E5F7F4F50
:104560008F4F9F4FAF4FB1E03ED0B4E03CD0670FCC
:10457000781F891F9A1FA11D680F791F8A1F911D1F
:10458000A11D6A0F711D811D911DA11D20D009F46F
:1045900068943F912AE0269F11243019305D3193B1
:1045A000DEF6CF010895462F4770405D4193B3E09A
:1045B0000FD0C9F7F6CF462F4F70405D4A3318F041
:1045C000495D31FD4052419302D0A9F7EACFB4E0F2
:1045D000A6959795879577956795BA95C9F70097AA
:1045E0006105710508959B01AC010A2E069457954B
:1045F000479537952795BA95C9F7620F731F841FA2
:10460000951FA01D0895B0E0A0E0E9E0F3E20C944E
:1046100016215C017B016115710519F0DB018D9399
:104620009C9385010F5F1F4FF501D0818D2F90E086
:104630000E9453246C01892BB9F5DD32B9F50F5F67
:104640001F4FD5011196DC91C1E05801F1E0AF1A7E
:10465000B10843E050E064EF71E0C5010E945C24C2
:10466000892B69F5680182E0C80ED11C45E050E055
:104670006FEE71E0C6010E945C24892B21F4680171
:1046800097E0C90ED11CE114F10419F0D701CD92C5
:10469000DC9260E070E080E89FEFC111FFC060E055
:1046A00070E080E89FE7FAC05801BBCFDB3229F405
:1046B00085010E5F1F4FF501D181C0E0C6CF43E0F9
:1046C00050E06CEE71E0C5010E945C24892BE9F09A
:1046D000F80110E000E020E030E0A9015F01B0ED5A
:1046E0008B2E8D0E89E08815C8F19C2E689491F868
:1046F0008C2F8870C2FF16C0811102C00F5F1F4F40
:104700003196D501DC91C92DE9CFE114F10429F0EE
:104710000E5F1F4FF7011183008360E070E080ECB3
:104720009FE7BCC0882311F001501109A5E0B0E05B
:104730000E949B259B01AC01220F331F441F551F74
:10474000280D311D411D511D283999E939074907A7
:1047500099E15907A8F2C6609C2ED2CFAEEF8A121B
:1047600006C0C3FD3CC09C2E689493F8C9CFDF7D82
:10477000D534A9F580818D3239F4C061DF011296FC
:10478000818162E070E006C0DF018B32C1F31196D7
:1047900061E070E080535D01A61AB70A8A30F8F430
:1047A000E0E8CE16ECE0DE065CF4B601660F771F9B
:1047B000660F771FC60ED71ECC0CDD1CC80ED11C91
:1047C0005D01FFEFAF1ABF0A8C9180538A30A8F1C8
:1047D000C4FF03C0D194C194D1080C0D1D1DC1FFAD
:1047E00009C0E114F10431F081E0A81AB108D70141
:1047F000AD92BC92CA01B9010E947924C370C33042
:1048000009F490584B015C0120E030E0A9010E94BE
:104810007424882309F440C0C3E2D2E017FF05C026
:10482000119501951109CBE0D2E06E01B8E1CB1AE8
:10483000D10880E2E82EF12C0FC0D501B1CFFE01E6
:1048400025913591459154910E191F09C501B40167
:104850000E94DA244B015C01D501C4010E151F052D
:1048600074F72497F594E794CC16DD06A9F78A2F00
:10487000880F8B2F881F8F3F49F020E030E0A9017F
:10488000C501B4010E947424811106C082E290E047
:104890009093530680935206C501B401CDB7DEB79D
:1048A000ECE00C94322191110C944725803219F0E0
:1048B00089508550C8F70895FB01DC0141505040F4
:1048C00088F08D9181341CF08B350CF4805E6591FD
:1048D00061341CF06B350CF4605E861B611171F362
:1048E000990B0895881BFCCF0E94B62408F481E040
:1048F0000895E89409C097FB3EF4909580957095D3
:1049000061957F4F8F4F9F4F9923A9F0F92F96E91B
:10491000BB279395F695879577956795B795F11190
:10492000F8CFFAF4BB0F11F460FF1BC06F5F7F4F2D
:104930008F4F9F4F16C0882311F096E911C077233F
:1049400021F09EE8872F762F05C0662371F096E848
:10495000862F70E060E02AF09A95660F771F881F17
:10496000DAF7880F9695879597F90895990F0008BB
:10497000550FAA0BE0E8FEEF16161706E807F90731
:10498000C0F012161306E407F50798F0621B730BCC
:10499000840B950B39F40A2661F0232B242B252B4D
:1049A00021F408950A2609F4A140A6958FEF811DF0
:1049B000811D08950E94ED240C9461250E945325C9
:1049C00038F00E945A2520F0952311F00C944A25C6
:1049D0000C94502511240C9495250E94722570F397
:1049E000959FC1F3950F50E0551F629FF001729F94
:1049F000BB27F00DB11D639FAA27F00DB11DAA1FA3
:104A0000649F6627B00DA11D661F829F2227B00DEF
:104A1000A11D621F739FB00DA11D621F839FA00D7A
:104A2000611D221F749F3327A00D611D231F849FCA
:104A3000600D211D822F762F6A2F11249F57504021
:104A40009AF0F1F088234AF0EE0FFF1FBB1F661F9C
:104A5000771F881F91505040A9F79E3F510580F065
:104A60000C944A250C9495255F3FE4F3983ED4F3CB
:104A7000869577956795B795F795E7959F5FC1F709
:104A8000FE2B880F911D9695879597F90895992784
:104A90008827089597F99F6780E870E060E008959F
:104AA0009FEF80EC089500240A9416161706180646
:104AB0000906089500240A94121613061406050622
:104AC0000895092E0394000C11F4882352F0BB0FB3
:104AD00040F4BF2B11F460FF04C06F5F7F4F8F4F16
:104AE0009F4F089557FD9058440F551F59F05F3F51
:104AF00071F04795880F97FB991F61F09F3F79F000
:104B000087950895121613061406551FF2CF469581
:104B1000F1DF08C0161617061806991FF1CF869503
:104B20007105610508940895E894BB2766277727E7
:104B3000CB0197F908950E94A625A59F900DB49FDB
:104B4000900DA49F800D911D11240895A29FB00186
:104B5000B39FC001A39F700D811D1124911DB29FB1
:104B6000700D811D1124911D08955058BB27AA274F
:104B70000E94CD250C9461250E94532538F00E9497
:104B80005A2520F039F49F3F19F426F40C9450254F
:104B90000EF4E095E7FB0C944A25E92F0E9472255C
:104BA00058F3BA17620773078407950720F079F462
:104BB000A6F50C9494250EF4E0950B2EBA2FA02D9B
:104BC0000B01B90190010C01CA01A0011124FF27BA
:104BD000591B99F0593F50F4503E68F11A16F040B5
:104BE000A22F232F342F4427585FF3CF46953795B4
:104BF0002795A795F0405395C9F77EF41F16BA0B79
:104C0000620B730B840BBAF09150A1F0FF0FBB1F26
:104C1000661F771F881FC2F70EC0BA0F621F731F6F
:104C2000841F48F4879577956795B795F7959E3FCC
:104C300008F0B0CF9395880F08F09927EE0F97955D
:104C4000879508950E9436260C9461250E945A2566
:104C500058F00E94532540F029F45F3F29F00C944E
:104C60004A2551110C9495250C9450250E947225CB
:104C700068F39923B1F3552391F3951B550BBB278B
:104C8000AA2762177307840738F09F5F5F4F220FD0
:104C9000331F441FAA1FA9F335D00E2E3AF0E0E8C7
:104CA00032D091505040E695001CCAF72BD0FE2F11
:104CB00029D0660F771F881FBB1F261737074807A5
:104CC000AB07B0E809F0BB0B802DBF01FF2793585D
:104CD0005F4F3AF09E3F510578F00C944A250C94B2
:104CE00095255F3FE4F3983ED4F3869577956795D5
:104CF000B795F7959F5FC9F7880F911D9695879592
:104D000097F90895E1E0660F771F881FBB1F6217B0
:104D100073078407BA0720F0621B730B840BBA0B6E
:104D2000EE1F88F7E09508950E947A2588F09F5736
:104D300098F0B92F9927B751B0F0E1F0660F771FBF
:104D4000881F991F1AF0BA95C9F714C0B13091F0B5
:104D50000E949425B1E008950C949425672F782F34
:104D60008827B85F39F0B93FCCF38695779567957A
:104D7000B395D9F73EF490958095709561957F4FE6
:104D80008F4F9F4F08950E94B62408F48FEF089527
:104D90000E94D82629ED3BE54EED5EE30C94DA2423
:104DA00016F00C94AA270C94502568940C944A256C
:104DB0000E947A25A8F39923C1F3AEF3DF93CF9332
:104DC0001F930F93FF92C92FDD2788232AF0219785
:104DD000660F771F881FDAF720E030E040E85FEBCE
:104DE0009FE3883920F0803E38F021968F770E942B
:104DF000B625E8E6F0E004C00E94B625E5E9F0E05B
:104E00000E94B8278B01BE01EC01FB2E6F57710980
:104E10007595771F880B990B0E947B2428E132E758
:104E200041E35FE30E94ED24AF2D9801AE01FF90B6
:104E30000F911F91CF91DF910E94CD250C94612598
:104E4000FA01EE0FFF1F309621053105A1F1611522
:104E5000710561F48038BFE39B0749F1689490388D
:104E6000810561F08038BFEF9B0741F099234AF537
:104E7000FF3FE1053105210519F1E8940894E79514
:104E8000D901AA2329F4AB2FBE2FF85FD0F310C0AD
:104E9000FF5F70F4A695E0F7F73950F019F0FF3A8C
:104EA00038F49F779F930DD00F9007FC905808958A
:104EB00046F00C94502560E070E080E89FE3089590
:104EC0004FE79F775F934F933F932F930E94D8268E
:104ED0002F913F914F915F910E94DA240C94782793
:104EE00029F416F00C944A250C9494250C94502522
:104EF0000E947A25A8F39638A0F707F80F92E89455
:104F00002BE33AEA48EB5FE70E94F0240F920F92FE
:104F10000F924DB75EB70F920E942128E2ECF0E0AD
:104F20000E94B8274F915F91EF91FF91E595EE1F99
:104F3000FF1F49F0FE57E0684427EE0F441FFA9523
:104F4000E1F74195550B0E94EB270F9007FE0C945B
:104F5000DF2708959F3F31F0915020F48795779592
:104F60006795B795880F911D9695879597F9089540
:104F7000DF93CF931F930F93FF92EF92DF927B010A
:104F80008C01689406C0DA2EEF010E94ED24FE0128
:104F9000E894A5912591359145915591A6F3EF019E
:104FA0000E94CD25FE019701A801DA9469F7DF90F0
:104FB000EF90FF900F911F91CF91DF9108959B018A
:104FC000AC0160E070E080E89FE30C9422260C9432
:104FD0004A250C94AA270E947A25D8F39923C9F36D
:104FE000940F511DA3F39150504094F059F0882331
:104FF00032F0660F771F881F91505040C1F79E3FD7
:1050000051052CF7880F911D9695879597F908956E
:105010005F3FACF0983E9CF0BB27869577956795EF
:10502000B79508F4B1609395C1F7BB0F58F711F429
:1050300060FFE8CF6F5F7F4F8F4F9F4FE3CF0C94A0
:105040009525FA01DC01AA0FBB1F9B01AC01BF57DC
:1050500028F4222733274427507820C0B75190F4F2
:10506000AB2F0024469537952795011CA395D2F3C5
:10507000002071F0220F331F441FB395DAF30ED0D6
:105080000C94B52561307105A0E88A07B94630F463
:105090009B01AC016627772788279078309621F00E
:1050A00020833183428353830895DB018F939F9341
:1050B0000E949B25BF91AF91A29F800D911DA39F40
:1050C000900DB29F900D1124089597FB072E16F4B2
:1050D000009407D077FD09D00E94A22807FC05D0D4
:1050E0003EF4909581959F4F0895709561957F4FFF
:1050F0000895A1E21A2EAA1BBB1BFD010DC0AA1F19
:10510000BB1FEE1FFF1FA217B307E407F50720F030
:10511000A21BB30BE40BF50B661F771F881F991FAB
:105120001A9469F760957095809590959B01AC01F4
:10513000BD01CF0108950E94A625B7FF0895821BE7
:10514000930B0895AA1BBB1B51E107C0AA1FBB1FED
:10515000A617B70710F0A61BB70B881F991F5A9503
:10516000A9F780959095BC01CD010895EE0FFF1F22
:105170000590F491E02D09940F931F93CF93DF9343
:105180008230910510F482E090E0E0915606F091B3
:10519000570630E020E0B0E0A0E0309799F4211508
:1051A000310509F44AC0281B390B24303105D8F5E4
:1051B0008A819B816115710589F1FB01938382834B
:1051C000FE0111C0408151810281138148175907A6
:1051D000E0F04817590799F4109761F012960C9374
:1051E000129713961C933296CF01DF91CF911F91A6
:1051F0000F9108950093560610935706F4CF21158A
:10520000310551F04217530738F0A901DB019A012B
:10521000BD01DF01F801C1CFEF01F9CF909357062F
:1052200080935606CDCFFE01E20FF31F8193919339
:105230002250310939832883D7CF209154063091E9
:105240005506232B41F420914101309142013093C6
:1052500055062093540620913F01309140012115BD
:10526000310541F42DB73EB74091430150914401BF
:10527000241B350BE0915406F0915506E217F30715
:10528000A0F42E1B3F0B2817390778F0AC014E5FB6
:105290005F4F2417350748F04E0F5F1F5093550698
:1052A00040935406819391939FCFF0E0E0E09CCF30
:1052B000CF93DF930097E9F0FC01329713821282BB
:1052C000A0915606B0915706ED0130E020E010970E
:1052D000A1F420813181820F931F209154063091D7
:1052E00055062817390709F061C0F0935506E09379
:1052F0005406DF91CF910895EA01CE17DF07E8F554
:105300004A815B819E0141155105B1F7E901FB839B
:10531000EA8349915991C40FD51FEC17FD0761F439
:10532000808191810296840F951FE901998388837A
:10533000828193819B838A83F0E0E0E012968D91D5
:105340009C9113970097B9F52D913C911197CD0140
:105350000296820F931F209154063091550628170C
:10536000390739F6309751F51092570610925606C4
:10537000B0935506A0935406BCCFD383C28340811B
:105380005181840F951FC817D90761F44E5F5F4F95
:1053900088819981480F591F518340838A819B815D
:1053A000938382832115310509F0B0CFF09357061E
:1053B000E09356069ECFFD01DC01C0CF138212821E
:1053C000D7CFB0E0A0E0E7EEF9E20C9412218C0117
:1053D000009751F4CB010E94BC288C01C801CDB7C5
:1053E000DEB7E0E10C942E21FC01E60FF71F9C01D3
:1053F00022503109E217F30708F49DC0D901CD917D
:10540000DC911197C617D70798F0C530D10530F356
:10541000CE0104978617970708F3C61BD70B229770
:10542000C193D1936D937C93CF010E945829D6CF1D
:105430005B01AC1ABD0A4C018C0E9D1EA091560654
:10544000B0915706512C412CF12CE12C109731F5DD
:1054500080915406909155068815990509F05CC015
:105460004616570608F058C080913F0190914001C0
:10547000009741F48DB79EB740914301509144018C
:10548000841B950BE817F90708F055C0F0935506F3
:10549000E0935406F90171836083A0CF8D919C91B4
:1054A000119712966C90129713967C901397A815EB
:1054B000B90559F56C0142E0C40ED11CCA14DB04D5
:1054C00020F1AC014A195B09DA011296159780F0B8
:1054D0006282738251834083D9016D937C93E1147E
:1054E000F10471F0D7011396FC93EE93129776CFE7
:1054F00022968C0F9D1FF90191838083F301EFCFDA
:10550000F0935706E093560669CF4816590608F4FB
:105510002C017D01D3019ACFCB010E94BC287C01D4
:10552000009749F0AE01B8010E94A32AC8010E9469
:105530005829870153CF10E000E050CF81E090E080
:10554000F8940C94EC2AFB01DC0102C001900D924E
:1055500041505040D8F70895FB01DC018D91019036
:1055600080190110D9F3990B0895FB01DC0101901A
:105570000D920020E1F70895AEE0B0E0E2ECFAE22F
:105580000C941E210D891E898F89988D26E02C830D
:105590001A83098397FF02C080E090E801979E83F9
:1055A0008D83AE01455E5F4F698D7A8DCE01019688
:1055B0000E94AF1D4D815E8157FD0AC02F81388545
:1055C000421753070CF49A01020F131FF8011082BF
:1055D0002E96E4E00C943A2113E0C6E2D3E004C036
:1055E000FE010E94B6282196C732D107C9F7F89468
:0255F000FFCFEB
:1055F2000134006A009A99D141CDCC064266660A0E
:1056020042140000007D000000A000000000000025
:105612000000000508FB000000000000000000057B
:1056220008FB0000000000000000000508FB00006D
:105632000058068000000000008F0D8F0D8F0D5066
:105642000B710B9E0A750B00000000FF0AA30AA152
:105652000A500B710B9E0AFF053D0830180C2400FE
:10566200000000A20602062F06EF0660063E065262
:10567200060000000028070206FD07270784079C92
:10568200070F070D0A004552524F523A20457272D7
:105692006F722072656164696E67204448543232C9
:1056A2002E2053746174757320636F64653A2025EC
:1056B2006400494E464F3A20416D6269656E74201E
:1056C2006C6967687420696E74656E736974792099
:1056D2006C657373207468616E20736574206D69E4
:1056E2006E20602564206C7860207468726573682F
:1056F2006F6C642E00494E464F3A20416D626965D7
:105702006E74206C6967687420696E74656E736963
:105712007479206D6F7265207468616E2073657490
:10572200206D617820602564206C78602074687236
:105732006573686F6C642E00494E464F3A20416D86
:105742006269656E74206C6967687420696E74653D
:105752006E7369747920696E2072616E6765206D5F
:10576200696E20602564206C786020746F206D6102
:105772007820602564206C78602074687265736894
:105782006F6C642E00494E464F3A20416D62696546
:105792006E742074656D7065726174757265206CCB
:1057A200657373207468616E20736574206D696E11
:1057B2002060252E326620C2B04360207468726574
:1057C20073686F6C642E00494E464F3A20416D62F9
:1057D20069656E742074656D706572617475726549
:1057E200206D6F7265207468616E20736574206D20
:1057F20061782060252E326620C2B0436020746832
:10580200726573686F6C642E00494E464F3A2041B0
:105812006D6269656E742068756D6964697479205A
:105822006C657373207468616E207365742074688C
:10583200726573686F6C642060252E3266202525A0
:10584200602E00494E464F3A20416D6269656E7482
:105852002068756D6964697479206D6F7265207452
:1058620068616E20736574207468726573686F6C0A
:10587200642060252E3266202525602E00494E4682
:105882004F3A2054616E6B207761746572206C65AB
:1058920076656C206C657373207468616E20736525
:1058A20074206D696E2060256420636D60207468C9
:1058B200726573686F6C642E00494E464F3A2054ED
:1058C200616E6B207761746572206C6576656C2001
:1058D2006D6F7265207468616E20736574206D61EE
:1058E200782060256420636D602074687265736837
:1058F2006F6C642E003A256420256420252E3266C2
:1059020020252E326620256C752025642025640012
:10591200494E464F3A206368616E6765203D2025F7
:105922006425642564256425642564256425642032
:10593200256C75202D3E2064696769747320616E41
:1059420064204E4F542062697400494E464F3A20FB
:105952006D61736B203D20256425642564256425D3
:105962006425642564256420256C75003100494E48
:10597200464F3A2073657474696E6773203D202523
:105982006420256420256420252E326620252E32AF
:105992006620252E32662025642025642025640099
:00000001FF
